{
  "_format": "hh-sol-artifact-1",
  "contractName": "CryptonDAO",
  "sourceName": "contracts/DAOerc1155.sol",
  "abi": [
    {
      "inputs": [
        {
          "internalType": "address",
          "name": "_tokenAddress",
          "type": "address"
        },
        {
          "internalType": "uint256",
          "name": "_minQuorum",
          "type": "uint256"
        }
      ],
      "stateMutability": "nonpayable",
      "type": "constructor"
    },
    {
      "anonymous": false,
      "inputs": [
        {
          "indexed": true,
          "internalType": "uint256",
          "name": "propID",
          "type": "uint256"
        },
        {
          "indexed": true,
          "internalType": "address",
          "name": "delegator",
          "type": "address"
        },
        {
          "indexed": true,
          "internalType": "address",
          "name": "delegate",
          "type": "address"
        }
      ],
      "name": "Delegate",
      "type": "event"
    },
    {
      "anonymous": false,
      "inputs": [
        {
          "indexed": true,
          "internalType": "address",
          "name": "account",
          "type": "address"
        },
        {
          "indexed": false,
          "internalType": "uint256",
          "name": "amount",
          "type": "uint256"
        }
      ],
      "name": "Deposit",
      "type": "event"
    },
    {
      "anonymous": false,
      "inputs": [
        {
          "indexed": true,
          "internalType": "uint256",
          "name": "propID",
          "type": "uint256"
        },
        {
          "indexed": true,
          "internalType": "address",
          "name": "creator",
          "type": "address"
        },
        {
          "indexed": false,
          "internalType": "string",
          "name": "description",
          "type": "string"
        },
        {
          "indexed": true,
          "internalType": "address",
          "name": "target",
          "type": "address"
        }
      ],
      "name": "NewProposal",
      "type": "event"
    },
    {
      "anonymous": false,
      "inputs": [
        {
          "indexed": true,
          "internalType": "address",
          "name": "previousOwner",
          "type": "address"
        },
        {
          "indexed": true,
          "internalType": "address",
          "name": "newOwner",
          "type": "address"
        }
      ],
      "name": "OwnershipTransferred",
      "type": "event"
    },
    {
      "anonymous": false,
      "inputs": [
        {
          "indexed": true,
          "internalType": "uint256",
          "name": "propID",
          "type": "uint256"
        },
        {
          "indexed": true,
          "internalType": "address",
          "name": "voter",
          "type": "address"
        },
        {
          "indexed": false,
          "internalType": "bool",
          "name": "decision",
          "type": "bool"
        }
      ],
      "name": "Voted",
      "type": "event"
    },
    {
      "anonymous": false,
      "inputs": [
        {
          "indexed": true,
          "internalType": "uint256",
          "name": "id",
          "type": "uint256"
        },
        {
          "indexed": false,
          "internalType": "bool",
          "name": "successful",
          "type": "bool"
        }
      ],
      "name": "VotingFinished",
      "type": "event"
    },
    {
      "anonymous": false,
      "inputs": [
        {
          "indexed": false,
          "internalType": "uint256",
          "name": "newMinQuorum",
          "type": "uint256"
        },
        {
          "indexed": false,
          "internalType": "uint256",
          "name": "newVotingPeriod",
          "type": "uint256"
        }
      ],
      "name": "VotingRulesChanged",
      "type": "event"
    },
    {
      "anonymous": false,
      "inputs": [
        {
          "indexed": true,
          "internalType": "address",
          "name": "account",
          "type": "address"
        },
        {
          "indexed": false,
          "internalType": "uint256",
          "name": "amount",
          "type": "uint256"
        }
      ],
      "name": "Withdraw",
      "type": "event"
    },
    {
      "inputs": [
        {
          "internalType": "string",
          "name": "description",
          "type": "string"
        },
        {
          "internalType": "address",
          "name": "target",
          "type": "address"
        }
      ],
      "name": "addProposal",
      "outputs": [
        {
          "internalType": "uint256",
          "name": "proposalID",
          "type": "uint256"
        }
      ],
      "stateMutability": "nonpayable",
      "type": "function"
    },
    {
      "inputs": [
        {
          "internalType": "address",
          "name": "",
          "type": "address"
        }
      ],
      "name": "balances",
      "outputs": [
        {
          "internalType": "uint256",
          "name": "",
          "type": "uint256"
        }
      ],
      "stateMutability": "view",
      "type": "function"
    },
    {
      "inputs": [
        {
          "internalType": "uint256",
          "name": "_minQuorum",
          "type": "uint256"
        },
        {
          "internalType": "uint256",
          "name": "_votingPeriod",
          "type": "uint256"
        }
      ],
      "name": "changeVotingRules",
      "outputs": [],
      "stateMutability": "nonpayable",
      "type": "function"
    },
    {
      "inputs": [
        {
          "internalType": "address",
          "name": "to",
          "type": "address"
        },
        {
          "internalType": "uint256",
          "name": "propID",
          "type": "uint256"
        }
      ],
      "name": "delegate",
      "outputs": [],
      "stateMutability": "nonpayable",
      "type": "function"
    },
    {
      "inputs": [
        {
          "internalType": "address",
          "name": "",
          "type": "address"
        },
        {
          "internalType": "uint256",
          "name": "",
          "type": "uint256"
        },
        {
          "internalType": "uint256",
          "name": "",
          "type": "uint256"
        }
      ],
      "name": "delegates",
      "outputs": [
        {
          "internalType": "address",
          "name": "",
          "type": "address"
        }
      ],
      "stateMutability": "view",
      "type": "function"
    },
    {
      "inputs": [
        {
          "internalType": "uint256",
          "name": "amount",
          "type": "uint256"
        }
      ],
      "name": "deposit",
      "outputs": [],
      "stateMutability": "nonpayable",
      "type": "function"
    },
    {
      "inputs": [
        {
          "internalType": "uint256",
          "name": "propID",
          "type": "uint256"
        }
      ],
      "name": "finishVoting",
      "outputs": [
        {
          "internalType": "bool",
          "name": "",
          "type": "bool"
        }
      ],
      "stateMutability": "nonpayable",
      "type": "function"
    },
    {
      "inputs": [
        {
          "internalType": "enum IDAO.Decision",
          "name": "_decision",
          "type": "uint8"
        }
      ],
      "name": "getDecisionKeyByValue",
      "outputs": [
        {
          "internalType": "string",
          "name": "",
          "type": "string"
        }
      ],
      "stateMutability": "pure",
      "type": "function"
    },
    {
      "inputs": [
        {
          "internalType": "address",
          "name": "account",
          "type": "address"
        },
        {
          "internalType": "uint256",
          "name": "propID",
          "type": "uint256"
        }
      ],
      "name": "getDelegatesList",
      "outputs": [
        {
          "internalType": "address[]",
          "name": "",
          "type": "address[]"
        }
      ],
      "stateMutability": "view",
      "type": "function"
    },
    {
      "inputs": [
        {
          "internalType": "uint256",
          "name": "start",
          "type": "uint256"
        },
        {
          "internalType": "uint256",
          "name": "end",
          "type": "uint256"
        }
      ],
      "name": "getManyProposals",
      "outputs": [
        {
          "components": [
            {
              "internalType": "uint256",
              "name": "votesFor",
              "type": "uint256"
            },
            {
              "internalType": "uint256",
              "name": "votesAgainst",
              "type": "uint256"
            },
            {
              "internalType": "uint256",
              "name": "createdAt",
              "type": "uint256"
            },
            {
              "internalType": "address",
              "name": "target",
              "type": "address"
            },
            {
              "internalType": "bool",
              "name": "isOpen",
              "type": "bool"
            },
            {
              "internalType": "string",
              "name": "description",
              "type": "string"
            },
            {
              "internalType": "bytes",
              "name": "callData",
              "type": "bytes"
            }
          ],
          "internalType": "struct IDAO.Proposal[]",
          "name": "props",
          "type": "tuple[]"
        }
      ],
      "stateMutability": "view",
      "type": "function"
    },
    {
      "inputs": [
        {
          "internalType": "uint256",
          "name": "propID",
          "type": "uint256"
        },
        {
          "internalType": "address",
          "name": "account",
          "type": "address"
        }
      ],
      "name": "getUserVote",
      "outputs": [
        {
          "components": [
            {
              "internalType": "uint256",
              "name": "weight",
              "type": "uint256"
            },
            {
              "internalType": "uint256",
              "name": "delegateWeight",
              "type": "uint256"
            },
            {
              "internalType": "uint8",
              "name": "decision",
              "type": "uint8"
            },
            {
              "internalType": "address",
              "name": "delegate",
              "type": "address"
            }
          ],
          "internalType": "struct IDAO.Vote",
          "name": "",
          "type": "tuple"
        }
      ],
      "stateMutability": "view",
      "type": "function"
    },
    {
      "inputs": [],
      "name": "minQuorum",
      "outputs": [
        {
          "internalType": "uint256",
          "name": "",
          "type": "uint256"
        }
      ],
      "stateMutability": "view",
      "type": "function"
    },
    {
      "inputs": [],
      "name": "numProposals",
      "outputs": [
        {
          "internalType": "uint256",
          "name": "",
          "type": "uint256"
        }
      ],
      "stateMutability": "view",
      "type": "function"
    },
    {
      "inputs": [
        {
          "internalType": "address",
          "name": "",
          "type": "address"
        },
        {
          "internalType": "address",
          "name": "",
          "type": "address"
        },
        {
          "internalType": "uint256[]",
          "name": "",
          "type": "uint256[]"
        },
        {
          "internalType": "uint256[]",
          "name": "",
          "type": "uint256[]"
        },
        {
          "internalType": "bytes",
          "name": "",
          "type": "bytes"
        }
      ],
      "name": "onERC1155BatchReceived",
      "outputs": [
        {
          "internalType": "bytes4",
          "name": "",
          "type": "bytes4"
        }
      ],
      "stateMutability": "nonpayable",
      "type": "function"
    },
    {
      "inputs": [
        {
          "internalType": "address",
          "name": "",
          "type": "address"
        },
        {
          "internalType": "address",
          "name": "",
          "type": "address"
        },
        {
          "internalType": "uint256",
          "name": "",
          "type": "uint256"
        },
        {
          "internalType": "uint256",
          "name": "",
          "type": "uint256"
        },
        {
          "internalType": "bytes",
          "name": "",
          "type": "bytes"
        }
      ],
      "name": "onERC1155Received",
      "outputs": [
        {
          "internalType": "bytes4",
          "name": "",
          "type": "bytes4"
        }
      ],
      "stateMutability": "nonpayable",
      "type": "function"
    },
    {
      "inputs": [],
      "name": "owner",
      "outputs": [
        {
          "internalType": "address",
          "name": "",
          "type": "address"
        }
      ],
      "stateMutability": "view",
      "type": "function"
    },
    {
      "inputs": [
        {
          "internalType": "uint256",
          "name": "",
          "type": "uint256"
        }
      ],
      "name": "proposals",
      "outputs": [
        {
          "internalType": "uint256",
          "name": "votesFor",
          "type": "uint256"
        },
        {
          "internalType": "uint256",
          "name": "votesAgainst",
          "type": "uint256"
        },
        {
          "internalType": "uint256",
          "name": "createdAt",
          "type": "uint256"
        },
        {
          "internalType": "address",
          "name": "target",
          "type": "address"
        },
        {
          "internalType": "bool",
          "name": "isOpen",
          "type": "bool"
        },
        {
          "internalType": "string",
          "name": "description",
          "type": "string"
        },
        {
          "internalType": "bytes",
          "name": "callData",
          "type": "bytes"
        }
      ],
      "stateMutability": "view",
      "type": "function"
    },
    {
      "inputs": [],
      "name": "renounceOwnership",
      "outputs": [],
      "stateMutability": "nonpayable",
      "type": "function"
    },
    {
      "inputs": [
        {
          "internalType": "bytes4",
          "name": "interfaceId",
          "type": "bytes4"
        }
      ],
      "name": "supportsInterface",
      "outputs": [
        {
          "internalType": "bool",
          "name": "",
          "type": "bool"
        }
      ],
      "stateMutability": "view",
      "type": "function"
    },
    {
      "inputs": [],
      "name": "token",
      "outputs": [
        {
          "internalType": "address",
          "name": "",
          "type": "address"
        }
      ],
      "stateMutability": "view",
      "type": "function"
    },
    {
      "inputs": [
        {
          "internalType": "address",
          "name": "newOwner",
          "type": "address"
        }
      ],
      "name": "transferOwnership",
      "outputs": [],
      "stateMutability": "nonpayable",
      "type": "function"
    },
    {
      "inputs": [
        {
          "internalType": "uint256",
          "name": "propID",
          "type": "uint256"
        },
        {
          "internalType": "bool",
          "name": "decision",
          "type": "bool"
        }
      ],
      "name": "vote",
      "outputs": [],
      "stateMutability": "nonpayable",
      "type": "function"
    },
    {
      "inputs": [
        {
          "internalType": "uint256",
          "name": "",
          "type": "uint256"
        },
        {
          "internalType": "address",
          "name": "",
          "type": "address"
        }
      ],
      "name": "votes",
      "outputs": [
        {
          "internalType": "uint256",
          "name": "weight",
          "type": "uint256"
        },
        {
          "internalType": "uint256",
          "name": "delegateWeight",
          "type": "uint256"
        },
        {
          "internalType": "uint8",
          "name": "decision",
          "type": "uint8"
        },
        {
          "internalType": "address",
          "name": "delegate",
          "type": "address"
        }
      ],
      "stateMutability": "view",
      "type": "function"
    },
    {
      "inputs": [],
      "name": "votingPeriod",
      "outputs": [
        {
          "internalType": "uint256",
          "name": "",
          "type": "uint256"
        }
      ],
      "stateMutability": "view",
      "type": "function"
    },
    {
      "inputs": [
        {
          "internalType": "uint256",
          "name": "amount",
          "type": "uint256"
        }
      ],
      "name": "withdraw",
      "outputs": [],
      "stateMutability": "nonpayable",
      "type": "function"
    },
    {
      "inputs": [
        {
          "internalType": "address",
          "name": "",
          "type": "address"
        }
      ],
      "name": "withdrawLock",
      "outputs": [
        {
          "internalType": "uint256",
          "name": "",
          "type": "uint256"
        }
      ],
      "stateMutability": "view",
      "type": "function"
    }
  ],
  "bytecode": "0x60806040526203f4806001553480156200001857600080fd5b5060405162002033380380620020338339810160408190526200003b91620000bf565b62000046336200006f565b600355600480546001600160a01b0319166001600160a01b0392909216919091179055620000fb565b600080546001600160a01b038381166001600160a01b0319831681178455604051919092169283917f8be0079c531659141344cd1fd0a4f28419497f9722a3daafe3b4186f6b6457e09190a35050565b60008060408385031215620000d357600080fd5b82516001600160a01b0381168114620000eb57600080fd5b6020939093015192949293505050565b611f28806200010b6000396000f3fe608060405234801561001057600080fd5b506004361061018e5760003560e01c80638da5cb5b116100de578063c9d27afe11610097578063d3f50b0011610071578063d3f50b001461046b578063f23a6e611461047e578063f2fde38b1461049d578063fc0c546a146104b057600080fd5b8063c9d27afe146103b9578063cdd0da7c146103cc578063d23254b4146103ec57600080fd5b80638da5cb5b1461030d5780638e7e64b814610332578063abe7c08e14610352578063b5a127e514610365578063b6b55f251461036e578063bc197c811461038157600080fd5b8063158059e21161014b578063400e394911610125578063400e3949146102c9578063589c5a92146102d2578063715018a6146102f2578063850535d9146102fa57600080fd5b8063158059e21461028357806327e235e3146102965780632e1a7d4d146102b657600080fd5b8063013cf08b1461019357806301ffc9a7146101c2578063026e402b146101e557806302a251a3146101fa57806303c7881a146102115780630636f1b314610263575b600080fd5b6101a66101a136600461173f565b6104c3565b6040516101b997969594939291906117a5565b60405180910390f35b6101d56101d0366004611800565b610622565b60405190151581526020016101b9565b6101f86101f3366004611848565b610659565b005b61020360015481565b6040519081526020016101b9565b61022461021f366004611872565b61079c565b6040516101b99190815181526020808301519082015260408083015160ff16908201526060918201516001600160a01b03169181019190915260800190565b61027661027136600461189e565b610885565b6040516101b991906118bf565b6101f86102913660046118d2565b6109f6565b6102036102a43660046118f4565b60056020526000908152604090205481565b6101f86102c436600461173f565b610a67565b61020360025481565b6102e56102e03660046118d2565b610be8565b6040516101b9919061190f565b6101f8610e94565b610203610308366004611a77565b610eca565b6000546001600160a01b03165b6040516001600160a01b0390911681526020016101b9565b610345610340366004611848565b610f78565b6040516101b99190611ad0565b6101d561036036600461173f565b610ff7565b61020360035481565b6101f861037c36600461173f565b6111c6565b6103a061038f366004611bbd565b63bc197c8160e01b95945050505050565b6040516001600160e01b031990911681526020016101b9565b6101f86103c7366004611c67565b6112cc565b6102036103da3660046118f4565b60066020526000908152604090205481565b6104396103fa366004611872565b600860209081526000928352604080842090915290825290208054600182015460029092015490919060ff81169061010090046001600160a01b031684565b6040516101b99493929190938452602084019290925260ff1660408301526001600160a01b0316606082015260800190565b61031a610479366004611c9c565b6113d0565b6103a061048c366004611ccf565b63f23a6e6160e01b95945050505050565b6101f86104ab3660046118f4565b611415565b60045461031a906001600160a01b031681565b600760205260009081526040902080546001820154600283015460038401546004850180549495939492936001600160a01b03831693600160a01b90930460ff169290919061051190611d34565b80601f016020809104026020016040519081016040528092919081815260200182805461053d90611d34565b801561058a5780601f1061055f5761010080835404028352916020019161058a565b820191906000526020600020905b81548152906001019060200180831161056d57829003601f168201915b50505050509080600501805461059f90611d34565b80601f01602080910402602001604051908101604052809291908181526020018280546105cb90611d34565b80156106185780601f106105ed57610100808354040283529160200191610618565b820191906000526020600020905b8154815290600101906020018083116105fb57829003601f168201915b5050505050905087565b60006001600160e01b03198216630271189760e51b148061065357506301ffc9a760e01b6001600160e01b03198316145b92915050565b6000818152600760209081526040808320600883528184203385529092529091206002015460ff16156106d35760405162461bcd60e51b815260206004820181905260248201527f416c72656164792070617274696369706174656420696e2070726f706f73616c60448201526064015b60405180910390fd5b6001600160a01b0383163314156107225760405162461bcd60e51b815260206004820152601360248201527243616e27742073656c662d64656c656761746560681b60448201526064016106ca565b4260015482600201546107359190611d9b565b116107525760405162461bcd60e51b81526004016106ca90611db3565b61075f82336003866114b0565b6040516001600160a01b03841690339084907f4aae9d98faa4137df04104122f887002256b47f839145564826f6551f20df11790600090a4505050565b604080516080810182526000808252602080830182905282840182905260608301829052858252600881528382206001600160a01b03861683529052919091206002015460ff166003141561082a5760008381526008602090815260408083206001600160a01b03808716855292529091206002015461082391859161010090041661079c565b9050610653565b5060009182526008602090815260408084206001600160a01b0393841685528252928390208351608081018552815481526001820154928101929092526002015460ff81169382019390935261010090920416606082015290565b6060600482600381111561089b5761089b611d6f565b60ff1611156108db5760405162461bcd60e51b815260206004820152600c60248201526b556e6b6e6f776e207479706560a01b60448201526064016106ca565b8160038111156108ed576108ed611d6f565b61091d57505060408051808201909152601081526f139bdd081c185c9d1a58da5c185d195960821b602082015290565b81600381111561092f5761092f611d6f565b6001141561095c57505060408051808201909152600981526814dd5c1c1bdc9d195960ba1b602082015290565b81600381111561096e5761096e611d6f565b6002141561099f57505060408051808201909152600d81526c139bdd081cdd5c1c1bdc9d1959609a1b602082015290565b8160038111156109b1576109b1611d6f565b600314156109dd57505060408051808201909152600881526744656c656761746560c01b602082015290565b505060408051602081019091526000815290565b919050565b6000546001600160a01b03163314610a205760405162461bcd60e51b81526004016106ca90611dd9565b6001819055600382905560408051838152602081018390527f5068be0b0b16bb579526c1103f009dfb6cf69548fda50fd8ebade4d030fb86f6910160405180910390a15050565b336000908152600660205260409020544211610acf5760405162461bcd60e51b815260206004820152602160248201527f43616e2774207769746864726177206265666f726520656e64206f6620766f746044820152606560f81b60648201526084016106ca565b33600090815260056020526040902054811115610b225760405162461bcd60e51b81526020600482015260116024820152704e6f7420656e6f75676820746f6b656e7360781b60448201526064016106ca565b60048054604051637921219560e11b81526001600160a01b039091169163f242432a91610b589130913391600191889101611e0e565b600060405180830381600087803b158015610b7257600080fd5b505af1158015610b86573d6000803e3d6000fd5b50503360009081526005602052604081208054859450909250610baa908490611e50565b909155505060405181815233907f884edad9ce6fa2440d8a54cc123490eb96d2768479d49ff9c7366125a9424364906020015b60405180910390a250565b60606002548210610c2b5760405162461bcd60e51b815260206004820152600d60248201526c496e76616c69642072616e676560981b60448201526064016106ca565b610c36826001611d9b565b67ffffffffffffffff811115610c4e57610c4e6119d8565b604051908082528060200260200182016040528015610cca57816020015b610cb76040518060e0016040528060008152602001600081526020016000815260200160006001600160a01b0316815260200160001515815260200160608152602001606081525090565b815260200190600190039081610c6c5790505b509050825b828111610e8d576000818152600760209081526040808320815160e0810183528154815260018201549381019390935260028101549183019190915260038101546001600160a01b0381166060840152600160a01b900460ff161515608083015260048101805460a084019190610d4590611d34565b80601f0160208091040260200160405190810160405280929190818152602001828054610d7190611d34565b8015610dbe5780601f10610d9357610100808354040283529160200191610dbe565b820191906000526020600020905b815481529060010190602001808311610da157829003601f168201915b50505050508152602001600582018054610dd790611d34565b80601f0160208091040260200160405190810160405280929190818152602001828054610e0390611d34565b8015610e505780601f10610e2557610100808354040283529160200191610e50565b820191906000526020600020905b815481529060010190602001808311610e3357829003601f168201915b505050505081525050905080838381518110610e6e57610e6e611e67565b6020026020010181905250508080610e8590611e7d565b915050610ccf565b5092915050565b6000546001600160a01b03163314610ebe5760405162461bcd60e51b81526004016106ca90611dd9565b610ec86000611656565b565b6002805460009182610edb83611e7d565b909155506000818152600760209081526040909120855192935091610f08916004840191908701906116a6565b506003810180546001600160a81b0319166001600160a01b038516908117600160a01b17909155426002830155604051339084907f94c121c95b232ca071da63db23301453955ad9a83a91d61f50fa0aef0697b49b90610f699089906118bf565b60405180910390a45092915050565b6001600160a01b0382166000908152600960209081526040808320848452825291829020805483518184028101840190945280845260609392830182828015610fea57602002820191906000526020600020905b81546001600160a01b03168152600190910190602001808311610fcc575b5050505050905092915050565b60008181526007602052604081206003810154600160a01b900460ff166110305760405162461bcd60e51b81526004016106ca90611db3565b4260015482600201546110439190611d9b565b11156110875760405162461bcd60e51b81526020600482015260136024820152724e65656420746f20776169742033206461797360681b60448201526064016106ca565b6003818101805460ff60a01b19169055815460018084015492546004805460405163bd85b03960e01b815291820193909352929392612710926001600160a01b03169063bd85b03990602401602060405180830381865afa1580156110f0573d6000803e3d6000fd5b505050506040513d601f19601f820116820180604052508101906111149190611e98565b61111e9190611eb1565b6111289190611ed0565b6111328284611d9b565b1015801561113f57508082115b15611185576040516001815285907fb5debc2edd758982f14e28c8678605ac21cbefda6d102fe9e1bf85830837067e9060200160405180910390a2506001949350505050565b6040516000815285907fb5debc2edd758982f14e28c8678605ac21cbefda6d102fe9e1bf85830837067e9060200160405180910390a2506000949350505050565b6000811161120d5760405162461bcd60e51b8152602060048201526014602482015273416d6f756e742063616e2774206265207a65726f60601b60448201526064016106ca565b60048054604051637921219560e11b81526001600160a01b039091169163f242432a916112439133913091600191889101611e0e565b600060405180830381600087803b15801561125d57600080fd5b505af1158015611271573d6000803e3d6000fd5b50503360009081526005602052604081208054859450909250611295908490611d9b565b909155505060405181815233907fe1fffcc4923d04b559f4d29a8bfc6cda04eb5b0d3c460751c2402c5c5cc9109c90602001610bdd565b6000828152600760205260409020600154600282015442916112ed91611d9b565b1161130a5760405162461bcd60e51b81526004016106ca90611db3565b600083815260086020908152604080832033845290915290206002015460ff16156113775760405162461bcd60e51b815260206004820181905260248201527f416c72656164792070617274696369706174656420696e2070726f706f73616c60448201526064016106ca565b61139283338461138857600261138b565b60015b60006114b0565b6040518215158152339084907ff2913dbe661ee2acc4a046d8fbcdc792373bda34c41c6086484b5345e5785e5f9060200160405180910390a3505050565b600960205282600052604060002060205281600052604060002081815481106113f857600080fd5b6000918252602090912001546001600160a01b0316925083915050565b6000546001600160a01b0316331461143f5760405162461bcd60e51b81526004016106ca90611dd9565b6001600160a01b0381166114a45760405162461bcd60e51b815260206004820152602660248201527f4f776e61626c653a206e6577206f776e657220697320746865207a65726f206160448201526564647265737360d01b60648201526084016106ca565b6114ad81611656565b50565b6000848152600760209081526040808320600883528184206001600160a01b03881685528352818420600590935292205460ff85166001141561151d5780825560018201546114ff9082611d9b565b8360000160008282546115129190611d9b565b909155506115dd9050565b60ff85166002141561154e57808255600182015461153b9082611d9b565b8360010160008282546115129190611d9b565b6001600160a01b0384811660008181526009602090815260408083208c845282528083208054600180820183559185528385200180546001600160a01b031916968d1696909617909555600287018054610100600160a81b03191661010086021790558b83526008825280832093835292905290812090910180548392906115d7908490611d9b565b90915550505b6002828101805460ff191660ff88161790553360009081526006602052604090205460015491850154909161161191611d9b565b1161162b573360009081526006602052604090205461163d565b600154836002015461163d9190611d9b565b3360009081526006602052604090205550505050505050565b600080546001600160a01b038381166001600160a01b0319831681178455604051919092169283917f8be0079c531659141344cd1fd0a4f28419497f9722a3daafe3b4186f6b6457e09190a35050565b8280546116b290611d34565b90600052602060002090601f0160209004810192826116d4576000855561171a565b82601f106116ed57805160ff191683800117855561171a565b8280016001018555821561171a579182015b8281111561171a5782518255916020019190600101906116ff565b5061172692915061172a565b5090565b5b80821115611726576000815560010161172b565b60006020828403121561175157600080fd5b5035919050565b6000815180845260005b8181101561177e57602081850181015186830182015201611762565b81811115611790576000602083870101525b50601f01601f19169290920160200192915050565b87815286602082015285604082015260018060a01b0385166060820152831515608082015260e060a082015260006117e060e0830185611758565b82810360c08401526117f28185611758565b9a9950505050505050505050565b60006020828403121561181257600080fd5b81356001600160e01b03198116811461182a57600080fd5b9392505050565b80356001600160a01b03811681146109f157600080fd5b6000806040838503121561185b57600080fd5b61186483611831565b946020939093013593505050565b6000806040838503121561188557600080fd5b8235915061189560208401611831565b90509250929050565b6000602082840312156118b057600080fd5b81356004811061182a57600080fd5b60208152600061182a6020830184611758565b600080604083850312156118e557600080fd5b50508035926020909101359150565b60006020828403121561190657600080fd5b61182a82611831565b60006020808301818452808551808352604092508286019150828160051b87010184880160005b838110156119ca57888303603f19018552815180518452878101518885015286810151878501526060808201516001600160a01b03169085015260808082015115159085015260a08082015160e0828701819052919061199883880182611758565b9250505060c080830151925085820381870152506119b68183611758565b968901969450505090860190600101611936565b509098975050505050505050565b634e487b7160e01b600052604160045260246000fd5b604051601f8201601f1916810167ffffffffffffffff81118282101715611a1757611a176119d8565b604052919050565b600067ffffffffffffffff831115611a3957611a396119d8565b611a4c601f8401601f19166020016119ee565b9050828152838383011115611a6057600080fd5b828260208301376000602084830101529392505050565b60008060408385031215611a8a57600080fd5b823567ffffffffffffffff811115611aa157600080fd5b8301601f81018513611ab257600080fd5b611ac185823560208401611a1f565b92505061189560208401611831565b6020808252825182820181905260009190848201906040850190845b81811015611b115783516001600160a01b031683529284019291840191600101611aec565b50909695505050505050565b600082601f830112611b2e57600080fd5b8135602067ffffffffffffffff821115611b4a57611b4a6119d8565b8160051b611b598282016119ee565b9283528481018201928281019087851115611b7357600080fd5b83870192505b84831015611b9257823582529183019190830190611b79565b979650505050505050565b600082601f830112611bae57600080fd5b61182a83833560208501611a1f565b600080600080600060a08688031215611bd557600080fd5b611bde86611831565b9450611bec60208701611831565b9350604086013567ffffffffffffffff80821115611c0957600080fd5b611c1589838a01611b1d565b94506060880135915080821115611c2b57600080fd5b611c3789838a01611b1d565b93506080880135915080821115611c4d57600080fd5b50611c5a88828901611b9d565b9150509295509295909350565b60008060408385031215611c7a57600080fd5b8235915060208301358015158114611c9157600080fd5b809150509250929050565b600080600060608486031215611cb157600080fd5b611cba84611831565b95602085013595506040909401359392505050565b600080600080600060a08688031215611ce757600080fd5b611cf086611831565b9450611cfe60208701611831565b93506040860135925060608601359150608086013567ffffffffffffffff811115611d2857600080fd5b611c5a88828901611b9d565b600181811c90821680611d4857607f821691505b60208210811415611d6957634e487b7160e01b600052602260045260246000fd5b50919050565b634e487b7160e01b600052602160045260246000fd5b634e487b7160e01b600052601160045260246000fd5b60008219821115611dae57611dae611d85565b500190565b6020808252600c908201526b159bdd1a5b99c8195b99195960a21b604082015260600190565b6020808252818101527f4f776e61626c653a2063616c6c6572206973206e6f7420746865206f776e6572604082015260600190565b6001600160a01b0394851681529290931660208301526040820152606081019190915260a060808201819052600190820152600360fc1b60c082015260e00190565b600082821015611e6257611e62611d85565b500390565b634e487b7160e01b600052603260045260246000fd5b6000600019821415611e9157611e91611d85565b5060010190565b600060208284031215611eaa57600080fd5b5051919050565b6000816000190483118215151615611ecb57611ecb611d85565b500290565b600082611eed57634e487b7160e01b600052601260045260246000fd5b50049056fea26469706673582212206c398fa3239d72849dbfbf62499d9353aa28d76d0c99c526976ce3704c29998664736f6c634300080a0033",
  "linkReferences": {},
  "deployedLinkReferences": {}
}