{
  "_format": "hh-sol-artifact-1",
  "contractName": "Cryptotoken",
  "sourceName": "contracts/erc1155dao.sol",
  "abi": [
    {
      "inputs": [
        {
          "internalType": "uint256",
          "name": "_feeRate",
          "type": "uint256"
        },
        {
          "internalType": "string",
          "name": "_name",
          "type": "string"
        },
        {
          "internalType": "string",
          "name": "_symbol",
          "type": "string"
        }
      ],
      "stateMutability": "nonpayable",
      "type": "constructor"
    },
    {
      "anonymous": false,
      "inputs": [
        {
          "indexed": true,
          "internalType": "address",
          "name": "caller",
          "type": "address"
        },
        {
          "indexed": false,
          "internalType": "address",
          "name": "account",
          "type": "address"
        }
      ],
      "name": "AddToWhitelist",
      "type": "event"
    },
    {
      "anonymous": false,
      "inputs": [
        {
          "indexed": true,
          "internalType": "address",
          "name": "account",
          "type": "address"
        },
        {
          "indexed": true,
          "internalType": "address",
          "name": "operator",
          "type": "address"
        },
        {
          "indexed": false,
          "internalType": "bool",
          "name": "approved",
          "type": "bool"
        }
      ],
      "name": "ApprovalForAll",
      "type": "event"
    },
    {
      "anonymous": false,
      "inputs": [
        {
          "indexed": true,
          "internalType": "address",
          "name": "caller",
          "type": "address"
        },
        {
          "indexed": false,
          "internalType": "uint256",
          "name": "feeRate",
          "type": "uint256"
        }
      ],
      "name": "ChangeFeeRate",
      "type": "event"
    },
    {
      "anonymous": false,
      "inputs": [
        {
          "indexed": true,
          "internalType": "address",
          "name": "caller",
          "type": "address"
        },
        {
          "indexed": false,
          "internalType": "address",
          "name": "feeRecipient",
          "type": "address"
        }
      ],
      "name": "ChangeFeeRecipient",
      "type": "event"
    },
    {
      "anonymous": false,
      "inputs": [
        {
          "indexed": true,
          "internalType": "address",
          "name": "previousOwner",
          "type": "address"
        },
        {
          "indexed": true,
          "internalType": "address",
          "name": "newOwner",
          "type": "address"
        }
      ],
      "name": "OwnershipTransferred",
      "type": "event"
    },
    {
      "anonymous": false,
      "inputs": [
        {
          "indexed": true,
          "internalType": "address",
          "name": "caller",
          "type": "address"
        },
        {
          "indexed": false,
          "internalType": "address",
          "name": "account",
          "type": "address"
        }
      ],
      "name": "RemoveFromWhitelist",
      "type": "event"
    },
    {
      "anonymous": false,
      "inputs": [
        {
          "indexed": true,
          "internalType": "address",
          "name": "operator",
          "type": "address"
        },
        {
          "indexed": true,
          "internalType": "address",
          "name": "from",
          "type": "address"
        },
        {
          "indexed": true,
          "internalType": "address",
          "name": "to",
          "type": "address"
        },
        {
          "indexed": false,
          "internalType": "uint256[]",
          "name": "ids",
          "type": "uint256[]"
        },
        {
          "indexed": false,
          "internalType": "uint256[]",
          "name": "values",
          "type": "uint256[]"
        }
      ],
      "name": "TransferBatch",
      "type": "event"
    },
    {
      "anonymous": false,
      "inputs": [
        {
          "indexed": true,
          "internalType": "address",
          "name": "operator",
          "type": "address"
        },
        {
          "indexed": true,
          "internalType": "address",
          "name": "from",
          "type": "address"
        },
        {
          "indexed": true,
          "internalType": "address",
          "name": "to",
          "type": "address"
        },
        {
          "indexed": false,
          "internalType": "uint256",
          "name": "id",
          "type": "uint256"
        },
        {
          "indexed": false,
          "internalType": "uint256",
          "name": "value",
          "type": "uint256"
        }
      ],
      "name": "TransferSingle",
      "type": "event"
    },
    {
      "anonymous": false,
      "inputs": [
        {
          "indexed": false,
          "internalType": "string",
          "name": "value",
          "type": "string"
        },
        {
          "indexed": true,
          "internalType": "uint256",
          "name": "id",
          "type": "uint256"
        }
      ],
      "name": "URI",
      "type": "event"
    },
    {
      "inputs": [
        {
          "internalType": "address",
          "name": "account",
          "type": "address"
        }
      ],
      "name": "addToWhitelist",
      "outputs": [],
      "stateMutability": "nonpayable",
      "type": "function"
    },
    {
      "inputs": [
        {
          "internalType": "address",
          "name": "account",
          "type": "address"
        },
        {
          "internalType": "uint256",
          "name": "id",
          "type": "uint256"
        }
      ],
      "name": "balanceOf",
      "outputs": [
        {
          "internalType": "uint256",
          "name": "",
          "type": "uint256"
        }
      ],
      "stateMutability": "view",
      "type": "function"
    },
    {
      "inputs": [
        {
          "internalType": "address[]",
          "name": "accounts",
          "type": "address[]"
        },
        {
          "internalType": "uint256[]",
          "name": "ids",
          "type": "uint256[]"
        }
      ],
      "name": "balanceOfBatch",
      "outputs": [
        {
          "internalType": "uint256[]",
          "name": "",
          "type": "uint256[]"
        }
      ],
      "stateMutability": "view",
      "type": "function"
    },
    {
      "inputs": [
        {
          "internalType": "address",
          "name": "account",
          "type": "address"
        },
        {
          "internalType": "uint256",
          "name": "value",
          "type": "uint256"
        }
      ],
      "name": "burn",
      "outputs": [],
      "stateMutability": "nonpayable",
      "type": "function"
    },
    {
      "inputs": [
        {
          "internalType": "uint256",
          "name": "value",
          "type": "uint256"
        }
      ],
      "name": "changeFeeRate",
      "outputs": [],
      "stateMutability": "nonpayable",
      "type": "function"
    },
    {
      "inputs": [
        {
          "internalType": "address",
          "name": "to",
          "type": "address"
        }
      ],
      "name": "changeFeeRecipient",
      "outputs": [],
      "stateMutability": "nonpayable",
      "type": "function"
    },
    {
      "inputs": [],
      "name": "dao",
      "outputs": [
        {
          "internalType": "address",
          "name": "",
          "type": "address"
        }
      ],
      "stateMutability": "view",
      "type": "function"
    },
    {
      "inputs": [],
      "name": "getFeeRate",
      "outputs": [
        {
          "internalType": "uint256",
          "name": "",
          "type": "uint256"
        }
      ],
      "stateMutability": "view",
      "type": "function"
    },
    {
      "inputs": [],
      "name": "getFeeRecipient",
      "outputs": [
        {
          "internalType": "address",
          "name": "",
          "type": "address"
        }
      ],
      "stateMutability": "view",
      "type": "function"
    },
    {
      "inputs": [],
      "name": "gettotalsupply",
      "outputs": [
        {
          "internalType": "uint256",
          "name": "",
          "type": "uint256"
        }
      ],
      "stateMutability": "view",
      "type": "function"
    },
    {
      "inputs": [
        {
          "internalType": "address",
          "name": "account",
          "type": "address"
        },
        {
          "internalType": "address",
          "name": "operator",
          "type": "address"
        }
      ],
      "name": "isApprovedForAll",
      "outputs": [
        {
          "internalType": "bool",
          "name": "",
          "type": "bool"
        }
      ],
      "stateMutability": "view",
      "type": "function"
    },
    {
      "inputs": [
        {
          "internalType": "address",
          "name": "account",
          "type": "address"
        }
      ],
      "name": "isWhitelisted",
      "outputs": [
        {
          "internalType": "bool",
          "name": "",
          "type": "bool"
        }
      ],
      "stateMutability": "view",
      "type": "function"
    },
    {
      "inputs": [
        {
          "internalType": "address",
          "name": "to",
          "type": "address"
        },
        {
          "internalType": "uint256",
          "name": "amount",
          "type": "uint256"
        }
      ],
      "name": "mint",
      "outputs": [],
      "stateMutability": "nonpayable",
      "type": "function"
    },
    {
      "inputs": [],
      "name": "name",
      "outputs": [
        {
          "internalType": "string",
          "name": "",
          "type": "string"
        }
      ],
      "stateMutability": "view",
      "type": "function"
    },
    {
      "inputs": [],
      "name": "owner",
      "outputs": [
        {
          "internalType": "address",
          "name": "",
          "type": "address"
        }
      ],
      "stateMutability": "view",
      "type": "function"
    },
    {
      "inputs": [
        {
          "internalType": "address",
          "name": "account",
          "type": "address"
        }
      ],
      "name": "removeFromWhitelist",
      "outputs": [],
      "stateMutability": "nonpayable",
      "type": "function"
    },
    {
      "inputs": [],
      "name": "renounceOwnership",
      "outputs": [],
      "stateMutability": "nonpayable",
      "type": "function"
    },
    {
      "inputs": [
        {
          "internalType": "address",
          "name": "from",
          "type": "address"
        },
        {
          "internalType": "address",
          "name": "to",
          "type": "address"
        },
        {
          "internalType": "uint256[]",
          "name": "ids",
          "type": "uint256[]"
        },
        {
          "internalType": "uint256[]",
          "name": "amounts",
          "type": "uint256[]"
        },
        {
          "internalType": "bytes",
          "name": "data",
          "type": "bytes"
        }
      ],
      "name": "safeBatchTransferFrom",
      "outputs": [],
      "stateMutability": "nonpayable",
      "type": "function"
    },
    {
      "inputs": [
        {
          "internalType": "address",
          "name": "from",
          "type": "address"
        },
        {
          "internalType": "address",
          "name": "to",
          "type": "address"
        },
        {
          "internalType": "uint256",
          "name": "id",
          "type": "uint256"
        },
        {
          "internalType": "uint256",
          "name": "amount",
          "type": "uint256"
        },
        {
          "internalType": "bytes",
          "name": "data",
          "type": "bytes"
        }
      ],
      "name": "safeTransferFrom",
      "outputs": [],
      "stateMutability": "nonpayable",
      "type": "function"
    },
    {
      "inputs": [
        {
          "internalType": "address",
          "name": "operator",
          "type": "address"
        },
        {
          "internalType": "bool",
          "name": "approved",
          "type": "bool"
        }
      ],
      "name": "setApprovalForAll",
      "outputs": [],
      "stateMutability": "nonpayable",
      "type": "function"
    },
    {
      "inputs": [
        {
          "internalType": "uint256",
          "name": "_newtotal",
          "type": "uint256"
        }
      ],
      "name": "settotalsupply",
      "outputs": [],
      "stateMutability": "nonpayable",
      "type": "function"
    },
    {
      "inputs": [
        {
          "internalType": "bytes4",
          "name": "interfaceId",
          "type": "bytes4"
        }
      ],
      "name": "supportsInterface",
      "outputs": [
        {
          "internalType": "bool",
          "name": "",
          "type": "bool"
        }
      ],
      "stateMutability": "view",
      "type": "function"
    },
    {
      "inputs": [],
      "name": "symbol",
      "outputs": [
        {
          "internalType": "string",
          "name": "",
          "type": "string"
        }
      ],
      "stateMutability": "view",
      "type": "function"
    },
    {
      "inputs": [],
      "name": "totalsupply",
      "outputs": [
        {
          "internalType": "uint256",
          "name": "",
          "type": "uint256"
        }
      ],
      "stateMutability": "view",
      "type": "function"
    },
    {
      "inputs": [
        {
          "internalType": "address",
          "name": "newOwner",
          "type": "address"
        }
      ],
      "name": "transferOwnership",
      "outputs": [],
      "stateMutability": "nonpayable",
      "type": "function"
    },
    {
      "inputs": [
        {
          "internalType": "uint256",
          "name": "",
          "type": "uint256"
        }
      ],
      "name": "uri",
      "outputs": [
        {
          "internalType": "string",
          "name": "",
          "type": "string"
        }
      ],
      "stateMutability": "view",
      "type": "function"
    }
  ],
  "bytecode": "0x60806040526305f5e1006009553480156200001957600080fd5b5060405162002241380380620022418339810160408190526200003c916200028d565b6040805160208101909152600081526200005681620000af565b506200006233620000c8565b600483905581516200007c9060079060208501906200011a565b508051620000929060089060208401906200011a565b5050600580546001600160a01b03191633179055506200033e9050565b8051620000c49060029060208401906200011a565b5050565b600380546001600160a01b038381166001600160a01b0319831681179093556040519116919082907f8be0079c531659141344cd1fd0a4f28419497f9722a3daafe3b4186f6b6457e090600090a35050565b828054620001289062000301565b90600052602060002090601f0160209004810192826200014c576000855562000197565b82601f106200016757805160ff191683800117855562000197565b8280016001018555821562000197579182015b82811115620001975782518255916020019190600101906200017a565b50620001a5929150620001a9565b5090565b5b80821115620001a55760008155600101620001aa565b634e487b7160e01b600052604160045260246000fd5b600082601f830112620001e857600080fd5b81516001600160401b0380821115620002055762000205620001c0565b604051601f8301601f19908116603f01168101908282118183101715620002305762000230620001c0565b816040528381526020925086838588010111156200024d57600080fd5b600091505b8382101562000271578582018301518183018401529082019062000252565b83821115620002835760008385830101525b9695505050505050565b600080600060608486031215620002a357600080fd5b835160208501519093506001600160401b0380821115620002c357600080fd5b620002d187838801620001d6565b93506040860151915080821115620002e857600080fd5b50620002f786828701620001d6565b9150509250925092565b600181811c908216806200031657607f821691505b602082108114156200033857634e487b7160e01b600052602260045260246000fd5b50919050565b611ef3806200034e6000396000f3fe608060405234801561001057600080fd5b506004361061018d5760003560e01c806372dd529b116100de578063a22cb46511610097578063e43252d711610071578063e43252d71461035f578063e985e9c514610372578063f242432a146103ae578063f2fde38b146103c157600080fd5b8063a22cb46514610326578063affca93214610339578063e25c96301461034c57600080fd5b806372dd529b146102d657806384e5eed0146102df5780638ab1d681146102e75780638da5cb5b146102fa57806395d89b411461030b5780639dc29fac1461031357600080fd5b80633af32abf1161014b5780634ccb20c0116101255780634ccb20c0146102955780634e1273f4146102a657806357a4db11146102c6578063715018a6146102ce57600080fd5b80633af32abf1461022b57806340c10f19146102575780634162169f1461026a57600080fd5b8062fdd58e1461019257806301ffc9a7146101b857806306fdde03146101db5780630e89341c146101f057806323604071146102035780632eb2c2d614610218575b600080fd5b6101a56101a036600461161e565b6103d4565b6040519081526020015b60405180910390f35b6101cb6101c636600461165e565b61046b565b60405190151581526020016101af565b6101e36104bd565b6040516101af91906116cf565b6101e36101fe3660046116e2565b61054b565b6102166102113660046116fb565b6105df565b005b610216610226366004611862565b610660565b6101cb6102393660046116fb565b6001600160a01b03166000908152600a602052604090205460ff1690565b61021661026536600461161e565b6106f7565b60065461027d906001600160a01b031681565b6040516001600160a01b0390911681526020016101af565b6005546001600160a01b031661027d565b6102b96102b436600461190c565b61074b565b6040516101af9190611a12565b6009546101a5565b610216610875565b6101a560095481565b6004546101a5565b6102166102f53660046116fb565b6108ab565b6003546001600160a01b031661027d565b6101e3610928565b61021661032136600461161e565b610935565b610216610334366004611a25565b6109a3565b6102166103473660046116e2565b6109ae565b61021661035a3660046116e2565b610a0f565b61021661036d3660046116fb565b610a3e565b6101cb610380366004611a61565b6001600160a01b03918216600090815260016020908152604080832093909416825291909152205460ff1690565b6102166103bc366004611a94565b610abe565b6102166103cf3660046116fb565b610b03565b60006001600160a01b0383166104455760405162461bcd60e51b815260206004820152602b60248201527f455243313135353a2062616c616e636520717565727920666f7220746865207a60448201526a65726f206164647265737360a81b60648201526084015b60405180910390fd5b506000908152602081815260408083206001600160a01b03949094168352929052205490565b60006001600160e01b03198216636cdb3d1360e11b148061049c57506001600160e01b031982166303a24d0760e21b145b806104b757506301ffc9a760e01b6001600160e01b03198316145b92915050565b600780546104ca90611af9565b80601f01602080910402602001604051908101604052809291908181526020018280546104f690611af9565b80156105435780601f1061051857610100808354040283529160200191610543565b820191906000526020600020905b81548152906001019060200180831161052657829003601f168201915b505050505081565b60606002805461055a90611af9565b80601f016020809104026020016040519081016040528092919081815260200182805461058690611af9565b80156105d35780601f106105a8576101008083540402835291602001916105d3565b820191906000526020600020905b8154815290600101906020018083116105b657829003601f168201915b50505050509050919050565b6003546001600160a01b031633146106095760405162461bcd60e51b815260040161043c90611b34565b600580546001600160a01b0319166001600160a01b03831690811790915560405190815233907f3a08b1c0f89bbe22ae6458a334ff95ccecc840f266c286f188cf29e31f7061ad906020015b60405180910390a250565b6001600160a01b03851633148061067c575061067c8533610380565b6106e35760405162461bcd60e51b815260206004820152603260248201527f455243313135353a207472616e736665722063616c6c6572206973206e6f74206044820152711bdddb995c881b9bdc88185c1c1c9bdd995960721b606482015260840161043c565b6106f08585858585610b9e565b5050505050565b6003546001600160a01b031633146107215760405162461bcd60e51b815260040161043c90611b34565b61074782600183604051806040016040528060018152602001600360fc1b815250610d89565b5050565b606081518351146107b05760405162461bcd60e51b815260206004820152602960248201527f455243313135353a206163636f756e747320616e6420696473206c656e677468604482015268040dad2e6dac2e8c6d60bb1b606482015260840161043c565b6000835167ffffffffffffffff8111156107cc576107cc611716565b6040519080825280602002602001820160405280156107f5578160200160208202803683370190505b50905060005b845181101561086d5761084085828151811061081957610819611b69565b602002602001015185838151811061083357610833611b69565b60200260200101516103d4565b82828151811061085257610852611b69565b602090810291909101015261086681611b95565b90506107fb565b509392505050565b6003546001600160a01b0316331461089f5760405162461bcd60e51b815260040161043c90611b34565b6108a96000610e99565b565b6003546001600160a01b031633146108d55760405162461bcd60e51b815260040161043c90611b34565b6001600160a01b0381166000818152600a6020908152604091829020805460ff19169055905191825233917fd69d323ec27eb997f9c9466b0c1f1f37d65382a7caeee9c9cacaf093d6d0bb579101610655565b600880546104ca90611af9565b6003546001600160a01b0316331461095f5760405162461bcd60e51b815260040161043c90611b34565b6001600160a01b03821633148061097b575061097b8233610380565b6109975760405162461bcd60e51b815260040161043c90611bb0565b61074782600183610eeb565b610747338383611064565b6003546001600160a01b031633146109d85760405162461bcd60e51b815260040161043c90611b34565b600481905560405181815233907ff8eccecbad8e0a650eaf97155186f2edac8af95165cfe8f4fcb7e11ea9693efd90602001610655565b6003546001600160a01b03163314610a395760405162461bcd60e51b815260040161043c90611b34565b600955565b6003546001600160a01b03163314610a685760405162461bcd60e51b815260040161043c90611b34565b6001600160a01b0381166000818152600a6020908152604091829020805460ff19166001179055905191825233917f1d579ce37763c9894e144fe60df6d85b0eaa341ed20bcb7045de4a9327eb51159101610655565b6001600160a01b038516331480610ada5750610ada8533610380565b610af65760405162461bcd60e51b815260040161043c90611bb0565b6106f08585858585611145565b6003546001600160a01b03163314610b2d5760405162461bcd60e51b815260040161043c90611b34565b6001600160a01b038116610b925760405162461bcd60e51b815260206004820152602660248201527f4f776e61626c653a206e6577206f776e657220697320746865207a65726f206160448201526564647265737360d01b606482015260840161043c565b610b9b81610e99565b50565b8151835114610c005760405162461bcd60e51b815260206004820152602860248201527f455243313135353a2069647320616e6420616d6f756e7473206c656e677468206044820152670dad2e6dac2e8c6d60c31b606482015260840161043c565b6001600160a01b038416610c265760405162461bcd60e51b815260040161043c90611bf9565b33610c35818787878787611262565b60005b8451811015610d1b576000858281518110610c5557610c55611b69565b602002602001015190506000858381518110610c7357610c73611b69565b602090810291909101810151600084815280835260408082206001600160a01b038e168352909352919091205490915081811015610cc35760405162461bcd60e51b815260040161043c90611c3e565b6000838152602081815260408083206001600160a01b038e8116855292528083208585039055908b16825281208054849290610d00908490611c88565b9250508190555050505080610d1490611b95565b9050610c38565b50846001600160a01b0316866001600160a01b0316826001600160a01b03167f4a39dc06d4c0dbc64b70af90fd698a233a518aa5d07e595d983b8c0526c8f7fb8787604051610d6b929190611ca0565b60405180910390a4610d818187878787876113a0565b505050505050565b6001600160a01b038416610de95760405162461bcd60e51b815260206004820152602160248201527f455243313135353a206d696e7420746f20746865207a65726f206164647265736044820152607360f81b606482015260840161043c565b33610e0981600087610dfa886114fc565b610e03886114fc565b87611262565b6000848152602081815260408083206001600160a01b038916845290915281208054859290610e39908490611c88565b909155505060408051858152602081018590526001600160a01b0380881692600092918516917fc3d58168c5ae7397731d063d5bbf3d657854427343f4c083240f7aacaa2d0f62910160405180910390a46106f081600087878787611547565b600380546001600160a01b038381166001600160a01b0319831681179093556040519116919082907f8be0079c531659141344cd1fd0a4f28419497f9722a3daafe3b4186f6b6457e090600090a35050565b6001600160a01b038316610f4d5760405162461bcd60e51b815260206004820152602360248201527f455243313135353a206275726e2066726f6d20746865207a65726f206164647260448201526265737360e81b606482015260840161043c565b33610f7c81856000610f5e876114fc565b610f67876114fc565b60405180602001604052806000815250611262565b6000838152602081815260408083206001600160a01b038816845290915290205482811015610ff95760405162461bcd60e51b8152602060048201526024808201527f455243313135353a206275726e20616d6f756e7420657863656564732062616c604482015263616e636560e01b606482015260840161043c565b6000848152602081815260408083206001600160a01b03898116808652918452828520888703905582518981529384018890529092908616917fc3d58168c5ae7397731d063d5bbf3d657854427343f4c083240f7aacaa2d0f62910160405180910390a45050505050565b816001600160a01b0316836001600160a01b031614156110d85760405162461bcd60e51b815260206004820152602960248201527f455243313135353a2073657474696e6720617070726f76616c20737461747573604482015268103337b91039b2b63360b91b606482015260840161043c565b6001600160a01b03838116600081815260016020908152604080832094871680845294825291829020805460ff191686151590811790915591519182527f17307eab39ab6107e8899845ad3d59bd9653f200f220920489ca2b5937696c31910160405180910390a3505050565b6001600160a01b03841661116b5760405162461bcd60e51b815260040161043c90611bf9565b3361117b818787610dfa886114fc565b6000848152602081815260408083206001600160a01b038a168452909152902054838110156111bc5760405162461bcd60e51b815260040161043c90611c3e565b6000858152602081815260408083206001600160a01b038b81168552925280832087850390559088168252812080548692906111f9908490611c88565b909155505060408051868152602081018690526001600160a01b03808916928a821692918616917fc3d58168c5ae7397731d063d5bbf3d657854427343f4c083240f7aacaa2d0f62910160405180910390a4611259828888888888611547565b50505050505050565b6001600160a01b0385166000908152600a602052604090205460ff1615801561129357506001600160a01b03851615155b80156112a757506001600160a01b03841615155b1561139b576000612710600454846000815181106112c7576112c7611b69565b60200260200101516112d99190611cce565b6112e39190611ced565b905080836000815181106112f9576112f9611b69565b602002602001015161130b9190611c88565b6113168760016103d4565b101561135c5760405162461bcd60e51b81526020600482015260156024820152744e6f7420656e6f75676820746f207061792066656560581b604482015260640161043c565b61136886600183610eeb565b600554604080518082019091526001808252600360fc1b6020830152611399926001600160a01b0316918490610d89565b505b610d81565b6001600160a01b0384163b15610d815760405163bc197c8160e01b81526001600160a01b0385169063bc197c81906113e49089908990889088908890600401611d0f565b6020604051808303816000875af192505050801561141f575060408051601f3d908101601f1916820190925261141c91810190611d6d565b60015b6114cc5761142b611d8a565b806308c379a014156114655750611440611da6565b8061144b5750611467565b8060405162461bcd60e51b815260040161043c91906116cf565b505b60405162461bcd60e51b815260206004820152603460248201527f455243313135353a207472616e7366657220746f206e6f6e20455243313135356044820152732932b1b2b4bb32b91034b6b83632b6b2b73a32b960611b606482015260840161043c565b6001600160e01b0319811663bc197c8160e01b146112595760405162461bcd60e51b815260040161043c90611e30565b6040805160018082528183019092526060916000919060208083019080368337019050509050828160008151811061153657611536611b69565b602090810291909101015292915050565b6001600160a01b0384163b15610d815760405163f23a6e6160e01b81526001600160a01b0385169063f23a6e619061158b9089908990889088908890600401611e78565b6020604051808303816000875af19250505080156115c6575060408051601f3d908101601f191682019092526115c391810190611d6d565b60015b6115d25761142b611d8a565b6001600160e01b0319811663f23a6e6160e01b146112595760405162461bcd60e51b815260040161043c90611e30565b80356001600160a01b038116811461161957600080fd5b919050565b6000806040838503121561163157600080fd5b61163a83611602565b946020939093013593505050565b6001600160e01b031981168114610b9b57600080fd5b60006020828403121561167057600080fd5b813561167b81611648565b9392505050565b6000815180845260005b818110156116a85760208185018101518683018201520161168c565b818111156116ba576000602083870101525b50601f01601f19169290920160200192915050565b60208152600061167b6020830184611682565b6000602082840312156116f457600080fd5b5035919050565b60006020828403121561170d57600080fd5b61167b82611602565b634e487b7160e01b600052604160045260246000fd5b601f8201601f1916810167ffffffffffffffff8111828210171561175257611752611716565b6040525050565b600067ffffffffffffffff82111561177357611773611716565b5060051b60200190565b600082601f83011261178e57600080fd5b8135602061179b82611759565b6040516117a8828261172c565b83815260059390931b85018201928281019150868411156117c857600080fd5b8286015b848110156117e357803583529183019183016117cc565b509695505050505050565b600082601f8301126117ff57600080fd5b813567ffffffffffffffff81111561181957611819611716565b604051611830601f8301601f19166020018261172c565b81815284602083860101111561184557600080fd5b816020850160208301376000918101602001919091529392505050565b600080600080600060a0868803121561187a57600080fd5b61188386611602565b945061189160208701611602565b9350604086013567ffffffffffffffff808211156118ae57600080fd5b6118ba89838a0161177d565b945060608801359150808211156118d057600080fd5b6118dc89838a0161177d565b935060808801359150808211156118f257600080fd5b506118ff888289016117ee565b9150509295509295909350565b6000806040838503121561191f57600080fd5b823567ffffffffffffffff8082111561193757600080fd5b818501915085601f83011261194b57600080fd5b8135602061195882611759565b604051611965828261172c565b83815260059390931b850182019282810191508984111561198557600080fd5b948201945b838610156119aa5761199b86611602565b8252948201949082019061198a565b965050860135925050808211156119c057600080fd5b506119cd8582860161177d565b9150509250929050565b600081518084526020808501945080840160005b83811015611a07578151875295820195908201906001016119eb565b509495945050505050565b60208152600061167b60208301846119d7565b60008060408385031215611a3857600080fd5b611a4183611602565b915060208301358015158114611a5657600080fd5b809150509250929050565b60008060408385031215611a7457600080fd5b611a7d83611602565b9150611a8b60208401611602565b90509250929050565b600080600080600060a08688031215611aac57600080fd5b611ab586611602565b9450611ac360208701611602565b93506040860135925060608601359150608086013567ffffffffffffffff811115611aed57600080fd5b6118ff888289016117ee565b600181811c90821680611b0d57607f821691505b60208210811415611b2e57634e487b7160e01b600052602260045260246000fd5b50919050565b6020808252818101527f4f776e61626c653a2063616c6c6572206973206e6f7420746865206f776e6572604082015260600190565b634e487b7160e01b600052603260045260246000fd5b634e487b7160e01b600052601160045260246000fd5b6000600019821415611ba957611ba9611b7f565b5060010190565b60208082526029908201527f455243313135353a2063616c6c6572206973206e6f74206f776e6572206e6f7260408201526808185c1c1c9bdd995960ba1b606082015260800190565b60208082526025908201527f455243313135353a207472616e7366657220746f20746865207a65726f206164604082015264647265737360d81b606082015260800190565b6020808252602a908201527f455243313135353a20696e73756666696369656e742062616c616e636520666f60408201526939103a3930b739b332b960b11b606082015260800190565b60008219821115611c9b57611c9b611b7f565b500190565b604081526000611cb360408301856119d7565b8281036020840152611cc581856119d7565b95945050505050565b6000816000190483118215151615611ce857611ce8611b7f565b500290565b600082611d0a57634e487b7160e01b600052601260045260246000fd5b500490565b6001600160a01b0386811682528516602082015260a060408201819052600090611d3b908301866119d7565b8281036060840152611d4d81866119d7565b90508281036080840152611d618185611682565b98975050505050505050565b600060208284031215611d7f57600080fd5b815161167b81611648565b600060033d1115611da35760046000803e5060005160e01c5b90565b600060443d1015611db45790565b6040516003193d81016004833e81513d67ffffffffffffffff8160248401118184111715611de457505050505090565b8285019150815181811115611dfc5750505050505090565b843d8701016020828501011115611e165750505050505090565b611e256020828601018761172c565b509095945050505050565b60208082526028908201527f455243313135353a204552433131353552656365697665722072656a656374656040820152676420746f6b656e7360c01b606082015260800190565b6001600160a01b03868116825285166020820152604081018490526060810183905260a060808201819052600090611eb290830184611682565b97965050505050505056fea26469706673582212201d241416b9c48175b5df605c7bf0b621cce120dec711c29583f1f5272a9de0c564736f6c634300080a0033",
  "linkReferences": {},
  "deployedLinkReferences": {}
}