{
  "_format": "hh-sol-artifact-1",
  "contractName": "DAOFactory",
  "sourceName": "contracts/DAOfactoryerc1155.sol",
  "abi": [
    {
      "inputs": [
        {
          "internalType": "address",
          "name": "",
          "type": "address"
        }
      ],
      "name": "contractAddresses",
      "outputs": [
        {
          "internalType": "address",
          "name": "",
          "type": "address"
        }
      ],
      "stateMutability": "view",
      "type": "function"
    },
    {
      "inputs": [],
      "name": "contractCount",
      "outputs": [
        {
          "internalType": "uint256",
          "name": "",
          "type": "uint256"
        }
      ],
      "stateMutability": "view",
      "type": "function"
    },
    {
      "inputs": [
        {
          "internalType": "uint256",
          "name": "_minQuorum",
          "type": "uint256"
        },
        {
          "internalType": "uint256",
          "name": "_feeRate",
          "type": "uint256"
        },
        {
          "internalType": "string",
          "name": "_name",
          "type": "string"
        },
        {
          "internalType": "string",
          "name": "_symbol",
          "type": "string"
        }
      ],
      "name": "createContract",
      "outputs": [],
      "stateMutability": "nonpayable",
      "type": "function"
    },
    {
      "inputs": [
        {
          "internalType": "address",
          "name": "",
          "type": "address"
        }
      ],
      "name": "erc1155Addresses",
      "outputs": [
        {
          "internalType": "address",
          "name": "",
          "type": "address"
        }
      ],
      "stateMutability": "view",
      "type": "function"
    },
    {
      "inputs": [],
      "name": "getContractCount",
      "outputs": [
        {
          "internalType": "uint256",
          "name": "",
          "type": "uint256"
        }
      ],
      "stateMutability": "view",
      "type": "function"
    },
    {
      "inputs": [],
      "name": "getMyContract",
      "outputs": [
        {
          "internalType": "address",
          "name": "",
          "type": "address"
        }
      ],
      "stateMutability": "view",
      "type": "function"
    },
    {
      "inputs": [],
      "name": "getMyerc20Contract",
      "outputs": [
        {
          "internalType": "address",
          "name": "",
          "type": "address"
        }
      ],
      "stateMutability": "view",
      "type": "function"
    }
  ],
  "bytecode": "0x608060405234801561001057600080fd5b50614529806100206000396000f3fe608060405234801561001057600080fd5b506004361061007d5760003560e01c80638736381a1161005b5780638736381a146100e55780639399869d146100fc578063a993f20914610104578063c958e7421461010c57600080fd5b806343f00e5d146100825780634661ac95146100975780635c41a1c4146100dd575b600080fd5b610095610090366004610413565b610135565b005b6100c06100a536600461048a565b6000602081905290815260409020546001600160a01b031681565b6040516001600160a01b0390911681526020015b60405180910390f35b6100c06102d6565b6100ee60025481565b6040519081526020016100d4565b6002546100ee565b6100c0610315565b6100c061011a36600461048a565b6001602052600090815260409020546001600160a01b031681565b600083838360405161014690610354565b61015293929190610507565b604051809103906000f08015801561016e573d6000803e3d6000fd5b5060405163f2fde38b60e01b81523360048201529091506001600160a01b0382169063f2fde38b90602401600060405180830381600087803b1580156101b357600080fd5b505af11580156101c7573d6000803e3d6000fd5b50503360009081526001602052604080822080546001600160a01b0319166001600160a01b03871617905551909250839150879061020490610362565b6001600160a01b0390921682526020820152604001604051809103906000f080158015610235573d6000803e3d6000fd5b5060405163f2fde38b60e01b81523360048201529091506001600160a01b0382169063f2fde38b90602401600060405180830381600087803b15801561027a57600080fd5b505af115801561028e573d6000803e3d6000fd5b505033600090815260208190526040812080546001600160a01b0319166001600160a01b03861617905560028054935091506102c98361053c565b9190505550505050505050565b336000908152602081905260408120546001600160a01b03166102f857600080fd5b50336000908152602081905260409020546001600160a01b031690565b336000908152600160205260408120546001600160a01b031661033757600080fd5b50336000908152600160205260409020546001600160a01b031690565b612241806200056683390190565b611d4d80620027a783390190565b634e487b7160e01b600052604160045260246000fd5b600082601f83011261039757600080fd5b813567ffffffffffffffff808211156103b2576103b2610370565b604051601f8301601f19908116603f011681019082821181831017156103da576103da610370565b816040528381528660208588010111156103f357600080fd5b836020870160208301376000602085830101528094505050505092915050565b6000806000806080858703121561042957600080fd5b8435935060208501359250604085013567ffffffffffffffff8082111561044f57600080fd5b61045b88838901610386565b9350606087013591508082111561047157600080fd5b5061047e87828801610386565b91505092959194509250565b60006020828403121561049c57600080fd5b81356001600160a01b03811681146104b357600080fd5b9392505050565b6000815180845260005b818110156104e0576020818501810151868301820152016104c4565b818111156104f2576000602083870101525b50601f01601f19169290920160200192915050565b83815260606020820152600061052060608301856104ba565b828103604084015261053281856104ba565b9695505050505050565b600060001982141561055e57634e487b7160e01b600052601160045260246000fd5b506001019056fe60806040526305f5e1006009553480156200001957600080fd5b5060405162002241380380620022418339810160408190526200003c916200028d565b6040805160208101909152600081526200005681620000af565b506200006233620000c8565b600483905581516200007c9060079060208501906200011a565b508051620000929060089060208401906200011a565b5050600580546001600160a01b03191633179055506200033e9050565b8051620000c49060029060208401906200011a565b5050565b600380546001600160a01b038381166001600160a01b0319831681179093556040519116919082907f8be0079c531659141344cd1fd0a4f28419497f9722a3daafe3b4186f6b6457e090600090a35050565b828054620001289062000301565b90600052602060002090601f0160209004810192826200014c576000855562000197565b82601f106200016757805160ff191683800117855562000197565b8280016001018555821562000197579182015b82811115620001975782518255916020019190600101906200017a565b50620001a5929150620001a9565b5090565b5b80821115620001a55760008155600101620001aa565b634e487b7160e01b600052604160045260246000fd5b600082601f830112620001e857600080fd5b81516001600160401b0380821115620002055762000205620001c0565b604051601f8301601f19908116603f01168101908282118183101715620002305762000230620001c0565b816040528381526020925086838588010111156200024d57600080fd5b600091505b8382101562000271578582018301518183018401529082019062000252565b83821115620002835760008385830101525b9695505050505050565b600080600060608486031215620002a357600080fd5b835160208501519093506001600160401b0380821115620002c357600080fd5b620002d187838801620001d6565b93506040860151915080821115620002e857600080fd5b50620002f786828701620001d6565b9150509250925092565b600181811c908216806200031657607f821691505b602082108114156200033857634e487b7160e01b600052602260045260246000fd5b50919050565b611ef3806200034e6000396000f3fe608060405234801561001057600080fd5b506004361061018d5760003560e01c806372dd529b116100de578063a22cb46511610097578063e43252d711610071578063e43252d71461035f578063e985e9c514610372578063f242432a146103ae578063f2fde38b146103c157600080fd5b8063a22cb46514610326578063affca93214610339578063e25c96301461034c57600080fd5b806372dd529b146102d657806384e5eed0146102df5780638ab1d681146102e75780638da5cb5b146102fa57806395d89b411461030b5780639dc29fac1461031357600080fd5b80633af32abf1161014b5780634ccb20c0116101255780634ccb20c0146102955780634e1273f4146102a657806357a4db11146102c6578063715018a6146102ce57600080fd5b80633af32abf1461022b57806340c10f19146102575780634162169f1461026a57600080fd5b8062fdd58e1461019257806301ffc9a7146101b857806306fdde03146101db5780630e89341c146101f057806323604071146102035780632eb2c2d614610218575b600080fd5b6101a56101a036600461161e565b6103d4565b6040519081526020015b60405180910390f35b6101cb6101c636600461165e565b61046b565b60405190151581526020016101af565b6101e36104bd565b6040516101af91906116cf565b6101e36101fe3660046116e2565b61054b565b6102166102113660046116fb565b6105df565b005b610216610226366004611862565b610660565b6101cb6102393660046116fb565b6001600160a01b03166000908152600a602052604090205460ff1690565b61021661026536600461161e565b6106f7565b60065461027d906001600160a01b031681565b6040516001600160a01b0390911681526020016101af565b6005546001600160a01b031661027d565b6102b96102b436600461190c565b61074b565b6040516101af9190611a12565b6009546101a5565b610216610875565b6101a560095481565b6004546101a5565b6102166102f53660046116fb565b6108ab565b6003546001600160a01b031661027d565b6101e3610928565b61021661032136600461161e565b610935565b610216610334366004611a25565b6109a3565b6102166103473660046116e2565b6109ae565b61021661035a3660046116e2565b610a0f565b61021661036d3660046116fb565b610a3e565b6101cb610380366004611a61565b6001600160a01b03918216600090815260016020908152604080832093909416825291909152205460ff1690565b6102166103bc366004611a94565b610abe565b6102166103cf3660046116fb565b610b03565b60006001600160a01b0383166104455760405162461bcd60e51b815260206004820152602b60248201527f455243313135353a2062616c616e636520717565727920666f7220746865207a60448201526a65726f206164647265737360a81b60648201526084015b60405180910390fd5b506000908152602081815260408083206001600160a01b03949094168352929052205490565b60006001600160e01b03198216636cdb3d1360e11b148061049c57506001600160e01b031982166303a24d0760e21b145b806104b757506301ffc9a760e01b6001600160e01b03198316145b92915050565b600780546104ca90611af9565b80601f01602080910402602001604051908101604052809291908181526020018280546104f690611af9565b80156105435780601f1061051857610100808354040283529160200191610543565b820191906000526020600020905b81548152906001019060200180831161052657829003601f168201915b505050505081565b60606002805461055a90611af9565b80601f016020809104026020016040519081016040528092919081815260200182805461058690611af9565b80156105d35780601f106105a8576101008083540402835291602001916105d3565b820191906000526020600020905b8154815290600101906020018083116105b657829003601f168201915b50505050509050919050565b6003546001600160a01b031633146106095760405162461bcd60e51b815260040161043c90611b34565b600580546001600160a01b0319166001600160a01b03831690811790915560405190815233907f3a08b1c0f89bbe22ae6458a334ff95ccecc840f266c286f188cf29e31f7061ad906020015b60405180910390a250565b6001600160a01b03851633148061067c575061067c8533610380565b6106e35760405162461bcd60e51b815260206004820152603260248201527f455243313135353a207472616e736665722063616c6c6572206973206e6f74206044820152711bdddb995c881b9bdc88185c1c1c9bdd995960721b606482015260840161043c565b6106f08585858585610b9e565b5050505050565b6003546001600160a01b031633146107215760405162461bcd60e51b815260040161043c90611b34565b61074782600183604051806040016040528060018152602001600360fc1b815250610d89565b5050565b606081518351146107b05760405162461bcd60e51b815260206004820152602960248201527f455243313135353a206163636f756e747320616e6420696473206c656e677468604482015268040dad2e6dac2e8c6d60bb1b606482015260840161043c565b6000835167ffffffffffffffff8111156107cc576107cc611716565b6040519080825280602002602001820160405280156107f5578160200160208202803683370190505b50905060005b845181101561086d5761084085828151811061081957610819611b69565b602002602001015185838151811061083357610833611b69565b60200260200101516103d4565b82828151811061085257610852611b69565b602090810291909101015261086681611b95565b90506107fb565b509392505050565b6003546001600160a01b0316331461089f5760405162461bcd60e51b815260040161043c90611b34565b6108a96000610e99565b565b6003546001600160a01b031633146108d55760405162461bcd60e51b815260040161043c90611b34565b6001600160a01b0381166000818152600a6020908152604091829020805460ff19169055905191825233917fd69d323ec27eb997f9c9466b0c1f1f37d65382a7caeee9c9cacaf093d6d0bb579101610655565b600880546104ca90611af9565b6003546001600160a01b0316331461095f5760405162461bcd60e51b815260040161043c90611b34565b6001600160a01b03821633148061097b575061097b8233610380565b6109975760405162461bcd60e51b815260040161043c90611bb0565b61074782600183610eeb565b610747338383611064565b6003546001600160a01b031633146109d85760405162461bcd60e51b815260040161043c90611b34565b600481905560405181815233907ff8eccecbad8e0a650eaf97155186f2edac8af95165cfe8f4fcb7e11ea9693efd90602001610655565b6003546001600160a01b03163314610a395760405162461bcd60e51b815260040161043c90611b34565b600955565b6003546001600160a01b03163314610a685760405162461bcd60e51b815260040161043c90611b34565b6001600160a01b0381166000818152600a6020908152604091829020805460ff19166001179055905191825233917f1d579ce37763c9894e144fe60df6d85b0eaa341ed20bcb7045de4a9327eb51159101610655565b6001600160a01b038516331480610ada5750610ada8533610380565b610af65760405162461bcd60e51b815260040161043c90611bb0565b6106f08585858585611145565b6003546001600160a01b03163314610b2d5760405162461bcd60e51b815260040161043c90611b34565b6001600160a01b038116610b925760405162461bcd60e51b815260206004820152602660248201527f4f776e61626c653a206e6577206f776e657220697320746865207a65726f206160448201526564647265737360d01b606482015260840161043c565b610b9b81610e99565b50565b8151835114610c005760405162461bcd60e51b815260206004820152602860248201527f455243313135353a2069647320616e6420616d6f756e7473206c656e677468206044820152670dad2e6dac2e8c6d60c31b606482015260840161043c565b6001600160a01b038416610c265760405162461bcd60e51b815260040161043c90611bf9565b33610c35818787878787611262565b60005b8451811015610d1b576000858281518110610c5557610c55611b69565b602002602001015190506000858381518110610c7357610c73611b69565b602090810291909101810151600084815280835260408082206001600160a01b038e168352909352919091205490915081811015610cc35760405162461bcd60e51b815260040161043c90611c3e565b6000838152602081815260408083206001600160a01b038e8116855292528083208585039055908b16825281208054849290610d00908490611c88565b9250508190555050505080610d1490611b95565b9050610c38565b50846001600160a01b0316866001600160a01b0316826001600160a01b03167f4a39dc06d4c0dbc64b70af90fd698a233a518aa5d07e595d983b8c0526c8f7fb8787604051610d6b929190611ca0565b60405180910390a4610d818187878787876113a0565b505050505050565b6001600160a01b038416610de95760405162461bcd60e51b815260206004820152602160248201527f455243313135353a206d696e7420746f20746865207a65726f206164647265736044820152607360f81b606482015260840161043c565b33610e0981600087610dfa886114fc565b610e03886114fc565b87611262565b6000848152602081815260408083206001600160a01b038916845290915281208054859290610e39908490611c88565b909155505060408051858152602081018590526001600160a01b0380881692600092918516917fc3d58168c5ae7397731d063d5bbf3d657854427343f4c083240f7aacaa2d0f62910160405180910390a46106f081600087878787611547565b600380546001600160a01b038381166001600160a01b0319831681179093556040519116919082907f8be0079c531659141344cd1fd0a4f28419497f9722a3daafe3b4186f6b6457e090600090a35050565b6001600160a01b038316610f4d5760405162461bcd60e51b815260206004820152602360248201527f455243313135353a206275726e2066726f6d20746865207a65726f206164647260448201526265737360e81b606482015260840161043c565b33610f7c81856000610f5e876114fc565b610f67876114fc565b60405180602001604052806000815250611262565b6000838152602081815260408083206001600160a01b038816845290915290205482811015610ff95760405162461bcd60e51b8152602060048201526024808201527f455243313135353a206275726e20616d6f756e7420657863656564732062616c604482015263616e636560e01b606482015260840161043c565b6000848152602081815260408083206001600160a01b03898116808652918452828520888703905582518981529384018890529092908616917fc3d58168c5ae7397731d063d5bbf3d657854427343f4c083240f7aacaa2d0f62910160405180910390a45050505050565b816001600160a01b0316836001600160a01b031614156110d85760405162461bcd60e51b815260206004820152602960248201527f455243313135353a2073657474696e6720617070726f76616c20737461747573604482015268103337b91039b2b63360b91b606482015260840161043c565b6001600160a01b03838116600081815260016020908152604080832094871680845294825291829020805460ff191686151590811790915591519182527f17307eab39ab6107e8899845ad3d59bd9653f200f220920489ca2b5937696c31910160405180910390a3505050565b6001600160a01b03841661116b5760405162461bcd60e51b815260040161043c90611bf9565b3361117b818787610dfa886114fc565b6000848152602081815260408083206001600160a01b038a168452909152902054838110156111bc5760405162461bcd60e51b815260040161043c90611c3e565b6000858152602081815260408083206001600160a01b038b81168552925280832087850390559088168252812080548692906111f9908490611c88565b909155505060408051868152602081018690526001600160a01b03808916928a821692918616917fc3d58168c5ae7397731d063d5bbf3d657854427343f4c083240f7aacaa2d0f62910160405180910390a4611259828888888888611547565b50505050505050565b6001600160a01b0385166000908152600a602052604090205460ff1615801561129357506001600160a01b03851615155b80156112a757506001600160a01b03841615155b1561139b576000612710600454846000815181106112c7576112c7611b69565b60200260200101516112d99190611cce565b6112e39190611ced565b905080836000815181106112f9576112f9611b69565b602002602001015161130b9190611c88565b6113168760016103d4565b101561135c5760405162461bcd60e51b81526020600482015260156024820152744e6f7420656e6f75676820746f207061792066656560581b604482015260640161043c565b61136886600183610eeb565b600554604080518082019091526001808252600360fc1b6020830152611399926001600160a01b0316918490610d89565b505b610d81565b6001600160a01b0384163b15610d815760405163bc197c8160e01b81526001600160a01b0385169063bc197c81906113e49089908990889088908890600401611d0f565b6020604051808303816000875af192505050801561141f575060408051601f3d908101601f1916820190925261141c91810190611d6d565b60015b6114cc5761142b611d8a565b806308c379a014156114655750611440611da6565b8061144b5750611467565b8060405162461bcd60e51b815260040161043c91906116cf565b505b60405162461bcd60e51b815260206004820152603460248201527f455243313135353a207472616e7366657220746f206e6f6e20455243313135356044820152732932b1b2b4bb32b91034b6b83632b6b2b73a32b960611b606482015260840161043c565b6001600160e01b0319811663bc197c8160e01b146112595760405162461bcd60e51b815260040161043c90611e30565b6040805160018082528183019092526060916000919060208083019080368337019050509050828160008151811061153657611536611b69565b602090810291909101015292915050565b6001600160a01b0384163b15610d815760405163f23a6e6160e01b81526001600160a01b0385169063f23a6e619061158b9089908990889088908890600401611e78565b6020604051808303816000875af19250505080156115c6575060408051601f3d908101601f191682019092526115c391810190611d6d565b60015b6115d25761142b611d8a565b6001600160e01b0319811663f23a6e6160e01b146112595760405162461bcd60e51b815260040161043c90611e30565b80356001600160a01b038116811461161957600080fd5b919050565b6000806040838503121561163157600080fd5b61163a83611602565b946020939093013593505050565b6001600160e01b031981168114610b9b57600080fd5b60006020828403121561167057600080fd5b813561167b81611648565b9392505050565b6000815180845260005b818110156116a85760208185018101518683018201520161168c565b818111156116ba576000602083870101525b50601f01601f19169290920160200192915050565b60208152600061167b6020830184611682565b6000602082840312156116f457600080fd5b5035919050565b60006020828403121561170d57600080fd5b61167b82611602565b634e487b7160e01b600052604160045260246000fd5b601f8201601f1916810167ffffffffffffffff8111828210171561175257611752611716565b6040525050565b600067ffffffffffffffff82111561177357611773611716565b5060051b60200190565b600082601f83011261178e57600080fd5b8135602061179b82611759565b6040516117a8828261172c565b83815260059390931b85018201928281019150868411156117c857600080fd5b8286015b848110156117e357803583529183019183016117cc565b509695505050505050565b600082601f8301126117ff57600080fd5b813567ffffffffffffffff81111561181957611819611716565b604051611830601f8301601f19166020018261172c565b81815284602083860101111561184557600080fd5b816020850160208301376000918101602001919091529392505050565b600080600080600060a0868803121561187a57600080fd5b61188386611602565b945061189160208701611602565b9350604086013567ffffffffffffffff808211156118ae57600080fd5b6118ba89838a0161177d565b945060608801359150808211156118d057600080fd5b6118dc89838a0161177d565b935060808801359150808211156118f257600080fd5b506118ff888289016117ee565b9150509295509295909350565b6000806040838503121561191f57600080fd5b823567ffffffffffffffff8082111561193757600080fd5b818501915085601f83011261194b57600080fd5b8135602061195882611759565b604051611965828261172c565b83815260059390931b850182019282810191508984111561198557600080fd5b948201945b838610156119aa5761199b86611602565b8252948201949082019061198a565b965050860135925050808211156119c057600080fd5b506119cd8582860161177d565b9150509250929050565b600081518084526020808501945080840160005b83811015611a07578151875295820195908201906001016119eb565b509495945050505050565b60208152600061167b60208301846119d7565b60008060408385031215611a3857600080fd5b611a4183611602565b915060208301358015158114611a5657600080fd5b809150509250929050565b60008060408385031215611a7457600080fd5b611a7d83611602565b9150611a8b60208401611602565b90509250929050565b600080600080600060a08688031215611aac57600080fd5b611ab586611602565b9450611ac360208701611602565b93506040860135925060608601359150608086013567ffffffffffffffff811115611aed57600080fd5b6118ff888289016117ee565b600181811c90821680611b0d57607f821691505b60208210811415611b2e57634e487b7160e01b600052602260045260246000fd5b50919050565b6020808252818101527f4f776e61626c653a2063616c6c6572206973206e6f7420746865206f776e6572604082015260600190565b634e487b7160e01b600052603260045260246000fd5b634e487b7160e01b600052601160045260246000fd5b6000600019821415611ba957611ba9611b7f565b5060010190565b60208082526029908201527f455243313135353a2063616c6c6572206973206e6f74206f776e6572206e6f7260408201526808185c1c1c9bdd995960ba1b606082015260800190565b60208082526025908201527f455243313135353a207472616e7366657220746f20746865207a65726f206164604082015264647265737360d81b606082015260800190565b6020808252602a908201527f455243313135353a20696e73756666696369656e742062616c616e636520666f60408201526939103a3930b739b332b960b11b606082015260800190565b60008219821115611c9b57611c9b611b7f565b500190565b604081526000611cb360408301856119d7565b8281036020840152611cc581856119d7565b95945050505050565b6000816000190483118215151615611ce857611ce8611b7f565b500290565b600082611d0a57634e487b7160e01b600052601260045260246000fd5b500490565b6001600160a01b0386811682528516602082015260a060408201819052600090611d3b908301866119d7565b8281036060840152611d4d81866119d7565b90508281036080840152611d618185611682565b98975050505050505050565b600060208284031215611d7f57600080fd5b815161167b81611648565b600060033d1115611da35760046000803e5060005160e01c5b90565b600060443d1015611db45790565b6040516003193d81016004833e81513d67ffffffffffffffff8160248401118184111715611de457505050505090565b8285019150815181811115611dfc5750505050505090565b843d8701016020828501011115611e165750505050505090565b611e256020828601018761172c565b509095945050505050565b60208082526028908201527f455243313135353a204552433131353552656365697665722072656a656374656040820152676420746f6b656e7360c01b606082015260800190565b6001600160a01b03868116825285166020820152604081018490526060810183905260a060808201819052600090611eb290830184611682565b97965050505050505056fea26469706673582212201d241416b9c48175b5df605c7bf0b621cce120dec711c29583f1f5272a9de0c564736f6c634300080a003360806040526203f48060015534801561001757600080fd5b5060405162001d4d38038062001d4d833981016040819052610038916100b9565b61004133610069565b600355600480546001600160a01b0319166001600160a01b03929092169190911790556100f3565b600080546001600160a01b038381166001600160a01b0319831681178455604051919092169283917f8be0079c531659141344cd1fd0a4f28419497f9722a3daafe3b4186f6b6457e09190a35050565b600080604083850312156100cc57600080fd5b82516001600160a01b03811681146100e357600080fd5b6020939093015192949293505050565b611c4a80620001036000396000f3fe608060405234801561001057600080fd5b506004361061014d5760003560e01c8063850535d9116100c3578063c9d27afe1161007c578063c9d27afe1461032d578063cdd0da7c14610340578063d23254b414610360578063d3f50b00146103df578063f2fde38b146103f2578063fc0c546a1461040557600080fd5b8063850535d9146102965780638da5cb5b146102a95780638e7e64b8146102ce578063abe7c08e146102ee578063b5a127e514610311578063b6b55f251461031a57600080fd5b8063158059e211610115578063158059e21461021f57806327e235e3146102325780632e1a7d4d14610252578063400e394914610265578063589c5a921461026e578063715018a61461028e57600080fd5b8063013cf08b14610152578063026e402b1461018157806302a251a31461019657806303c7881a146101ad5780630636f1b3146101ff575b600080fd5b610165610160366004611663565b610418565b60405161017897969594939291906116c9565b60405180910390f35b61019461018f36600461173b565b610577565b005b61019f60015481565b604051908152602001610178565b6101c06101bb366004611765565b6106ba565b6040516101789190815181526020808301519082015260408083015160ff16908201526060918201516001600160a01b03169181019190915260800190565b61021261020d366004611791565b6107a9565b60405161017891906117b9565b61019461022d3660046117cc565b61091a565b61019f6102403660046117ee565b60056020526000908152604090205481565b610194610260366004611663565b61098b565b61019f60025481565b61028161027c3660046117cc565b610b0c565b6040516101789190611809565b610194610db8565b61019f6102a43660046118e8565b610dee565b6000546001600160a01b03165b6040516001600160a01b039091168152602001610178565b6102e16102dc36600461173b565b610e9c565b60405161017891906119a1565b6103016102fc366004611663565b610f1b565b6040519015158152602001610178565b61019f60035481565b610194610328366004611663565b6110ea565b61019461033b3660046119ee565b6111f0565b61019f61034e3660046117ee565b60066020526000908152604090205481565b6103ad61036e366004611765565b600860209081526000928352604080842090915290825290208054600182015460029092015490919060ff81169061010090046001600160a01b031684565b6040516101789493929190938452602084019290925260ff1660408301526001600160a01b0316606082015260800190565b6102b66103ed366004611a23565b6112f4565b6101946104003660046117ee565b611339565b6004546102b6906001600160a01b031681565b600760205260009081526040902080546001820154600283015460038401546004850180549495939492936001600160a01b03831693600160a01b90930460ff169290919061046690611a56565b80601f016020809104026020016040519081016040528092919081815260200182805461049290611a56565b80156104df5780601f106104b4576101008083540402835291602001916104df565b820191906000526020600020905b8154815290600101906020018083116104c257829003601f168201915b5050505050908060050180546104f490611a56565b80601f016020809104026020016040519081016040528092919081815260200182805461052090611a56565b801561056d5780601f106105425761010080835404028352916020019161056d565b820191906000526020600020905b81548152906001019060200180831161055057829003601f168201915b5050505050905087565b6000818152600760209081526040808320600883528184203385529092529091206002015460ff16156105f15760405162461bcd60e51b815260206004820181905260248201527f416c72656164792070617274696369706174656420696e2070726f706f73616c60448201526064015b60405180910390fd5b6001600160a01b0383163314156106405760405162461bcd60e51b815260206004820152601360248201527243616e27742073656c662d64656c656761746560681b60448201526064016105e8565b4260015482600201546106539190611abd565b116106705760405162461bcd60e51b81526004016105e890611ad5565b61067d82336003866113d4565b6040516001600160a01b03841690339084907f4aae9d98faa4137df04104122f887002256b47f839145564826f6551f20df11790600090a4505050565b604080516080810182526000808252602080830182905282840182905260608301829052858252600881528382206001600160a01b03861683529052919091206002015460ff16600314156107485760008381526008602090815260408083206001600160a01b0380871685529252909120600201546107419185916101009004166106ba565b90506107a3565b5060008281526008602090815260408083206001600160a01b038086168552908352928190208151608081018352815481526001820154938101939093526002015460ff811691830191909152610100900490911660608201525b92915050565b606060048260038111156107bf576107bf611a91565b60ff1611156107ff5760405162461bcd60e51b815260206004820152600c60248201526b556e6b6e6f776e207479706560a01b60448201526064016105e8565b81600381111561081157610811611a91565b61084157505060408051808201909152601081526f139bdd081c185c9d1a58da5c185d195960821b602082015290565b81600381111561085357610853611a91565b6001141561088057505060408051808201909152600981526814dd5c1c1bdc9d195960ba1b602082015290565b81600381111561089257610892611a91565b600214156108c357505060408051808201909152600d81526c139bdd081cdd5c1c1bdc9d1959609a1b602082015290565b8160038111156108d5576108d5611a91565b6003141561090157505060408051808201909152600881526744656c656761746560c01b602082015290565b505060408051602081019091526000815290565b919050565b6000546001600160a01b031633146109445760405162461bcd60e51b81526004016105e890611afb565b6001819055600382905560408051838152602081018390527f5068be0b0b16bb579526c1103f009dfb6cf69548fda50fd8ebade4d030fb86f6910160405180910390a15050565b3360009081526006602052604090205442116109f35760405162461bcd60e51b815260206004820152602160248201527f43616e2774207769746864726177206265666f726520656e64206f6620766f746044820152606560f81b60648201526084016105e8565b33600090815260056020526040902054811115610a465760405162461bcd60e51b81526020600482015260116024820152704e6f7420656e6f75676820746f6b656e7360781b60448201526064016105e8565b60048054604051637921219560e11b81526001600160a01b039091169163f242432a91610a7c9130913391600191889101611b30565b600060405180830381600087803b158015610a9657600080fd5b505af1158015610aaa573d6000803e3d6000fd5b50503360009081526005602052604081208054859450909250610ace908490611b72565b909155505060405181815233907f884edad9ce6fa2440d8a54cc123490eb96d2768479d49ff9c7366125a9424364906020015b60405180910390a250565b60606002548210610b4f5760405162461bcd60e51b815260206004820152600d60248201526c496e76616c69642072616e676560981b60448201526064016105e8565b610b5a826001611abd565b67ffffffffffffffff811115610b7257610b726118d2565b604051908082528060200260200182016040528015610bee57816020015b610bdb6040518060e0016040528060008152602001600081526020016000815260200160006001600160a01b0316815260200160001515815260200160608152602001606081525090565b815260200190600190039081610b905790505b509050825b828111610db1576000818152600760209081526040808320815160e0810183528154815260018201549381019390935260028101549183019190915260038101546001600160a01b0381166060840152600160a01b900460ff161515608083015260048101805460a084019190610c6990611a56565b80601f0160208091040260200160405190810160405280929190818152602001828054610c9590611a56565b8015610ce25780601f10610cb757610100808354040283529160200191610ce2565b820191906000526020600020905b815481529060010190602001808311610cc557829003601f168201915b50505050508152602001600582018054610cfb90611a56565b80601f0160208091040260200160405190810160405280929190818152602001828054610d2790611a56565b8015610d745780601f10610d4957610100808354040283529160200191610d74565b820191906000526020600020905b815481529060010190602001808311610d5757829003601f168201915b505050505081525050905080838381518110610d9257610d92611b89565b6020026020010181905250508080610da990611b9f565b915050610bf3565b5092915050565b6000546001600160a01b03163314610de25760405162461bcd60e51b81526004016105e890611afb565b610dec600061157a565b565b6002805460009182610dff83611b9f565b909155506000818152600760209081526040909120855192935091610e2c916004840191908701906115ca565b506003810180546001600160a81b0319166001600160a01b038516908117600160a01b17909155426002830155604051339084907f94c121c95b232ca071da63db23301453955ad9a83a91d61f50fa0aef0697b49b90610e8d9089906117b9565b60405180910390a45092915050565b6001600160a01b0382166000908152600960209081526040808320848452825291829020805483518184028101840190945280845260609392830182828015610f0e57602002820191906000526020600020905b81546001600160a01b03168152600190910190602001808311610ef0575b5050505050905092915050565b60008181526007602052604081206003810154600160a01b900460ff16610f545760405162461bcd60e51b81526004016105e890611ad5565b426001548260020154610f679190611abd565b1115610fab5760405162461bcd60e51b81526020600482015260136024820152724e65656420746f20776169742033206461797360681b60448201526064016105e8565b6003818101805460ff60a01b19169055815460018084015492546004805460405163bd85b03960e01b815291820193909352929392612710926001600160a01b03169063bd85b03990602401602060405180830381865afa158015611014573d6000803e3d6000fd5b505050506040513d601f19601f820116820180604052508101906110389190611bba565b6110429190611bd3565b61104c9190611bf2565b6110568284611abd565b1015801561106357508082115b156110a9576040516001815285907fb5debc2edd758982f14e28c8678605ac21cbefda6d102fe9e1bf85830837067e9060200160405180910390a2506001949350505050565b6040516000815285907fb5debc2edd758982f14e28c8678605ac21cbefda6d102fe9e1bf85830837067e9060200160405180910390a2506000949350505050565b600081116111315760405162461bcd60e51b8152602060048201526014602482015273416d6f756e742063616e2774206265207a65726f60601b60448201526064016105e8565b60048054604051637921219560e11b81526001600160a01b039091169163f242432a916111679133913091600191889101611b30565b600060405180830381600087803b15801561118157600080fd5b505af1158015611195573d6000803e3d6000fd5b505033600090815260056020526040812080548594509092506111b9908490611abd565b909155505060405181815233907fe1fffcc4923d04b559f4d29a8bfc6cda04eb5b0d3c460751c2402c5c5cc9109c90602001610b01565b60008281526007602052604090206001546002820154429161121191611abd565b1161122e5760405162461bcd60e51b81526004016105e890611ad5565b600083815260086020908152604080832033845290915290206002015460ff161561129b5760405162461bcd60e51b815260206004820181905260248201527f416c72656164792070617274696369706174656420696e2070726f706f73616c60448201526064016105e8565b6112b68333846112ac5760026112af565b60015b60006113d4565b6040518215158152339084907ff2913dbe661ee2acc4a046d8fbcdc792373bda34c41c6086484b5345e5785e5f9060200160405180910390a3505050565b6009602052826000526040600020602052816000526040600020818154811061131c57600080fd5b6000918252602090912001546001600160a01b0316925083915050565b6000546001600160a01b031633146113635760405162461bcd60e51b81526004016105e890611afb565b6001600160a01b0381166113c85760405162461bcd60e51b815260206004820152602660248201527f4f776e61626c653a206e6577206f776e657220697320746865207a65726f206160448201526564647265737360d01b60648201526084016105e8565b6113d18161157a565b50565b6000848152600760209081526040808320600883528184206001600160a01b03881685528352818420600590935292205460ff8516600114156114415780825560018201546114239082611abd565b8360000160008282546114369190611abd565b909155506115019050565b60ff85166002141561147257808255600182015461145f9082611abd565b8360010160008282546114369190611abd565b6001600160a01b0384811660008181526009602090815260408083208c845282528083208054600180820183559185528385200180546001600160a01b031916968d1696909617909555600287018054610100600160a81b03191661010086021790558b83526008825280832093835292905290812090910180548392906114fb908490611abd565b90915550505b6002828101805460ff191660ff88161790553360009081526006602052604090205460015491850154909161153591611abd565b1161154f5733600090815260066020526040902054611561565b60015483600201546115619190611abd565b3360009081526006602052604090205550505050505050565b600080546001600160a01b038381166001600160a01b0319831681178455604051919092169283917f8be0079c531659141344cd1fd0a4f28419497f9722a3daafe3b4186f6b6457e09190a35050565b8280546115d690611a56565b90600052602060002090601f0160209004810192826115f8576000855561163e565b82601f1061161157805160ff191683800117855561163e565b8280016001018555821561163e579182015b8281111561163e578251825591602001919060010190611623565b5061164a92915061164e565b5090565b5b8082111561164a576000815560010161164f565b60006020828403121561167557600080fd5b5035919050565b6000815180845260005b818110156116a257602081850181015186830182015201611686565b818111156116b4576000602083870101525b50601f01601f19169290920160200192915050565b87815286602082015285604082015260018060a01b0385166060820152831515608082015260e060a0820152600061170460e083018561167c565b82810360c0840152611716818561167c565b9a9950505050505050505050565b80356001600160a01b038116811461091557600080fd5b6000806040838503121561174e57600080fd5b61175783611724565b946020939093013593505050565b6000806040838503121561177857600080fd5b8235915061178860208401611724565b90509250929050565b6000602082840312156117a357600080fd5b8135600481106117b257600080fd5b9392505050565b6020815260006117b2602083018461167c565b600080604083850312156117df57600080fd5b50508035926020909101359150565b60006020828403121561180057600080fd5b6117b282611724565b60006020808301818452808551808352604092508286019150828160051b87010184880160005b838110156118c457888303603f19018552815180518452878101518885015286810151878501526060808201516001600160a01b03169085015260808082015115159085015260a08082015160e082870181905291906118928388018261167c565b9250505060c080830151925085820381870152506118b0818361167c565b968901969450505090860190600101611830565b509098975050505050505050565b634e487b7160e01b600052604160045260246000fd5b600080604083850312156118fb57600080fd5b823567ffffffffffffffff8082111561191357600080fd5b818501915085601f83011261192757600080fd5b813581811115611939576119396118d2565b604051601f8201601f19908116603f01168101908382118183101715611961576119616118d2565b8160405282815288602084870101111561197a57600080fd5b82602086016020830137600060208483010152809650505050505061178860208401611724565b6020808252825182820181905260009190848201906040850190845b818110156119e25783516001600160a01b0316835292840192918401916001016119bd565b50909695505050505050565b60008060408385031215611a0157600080fd5b8235915060208301358015158114611a1857600080fd5b809150509250929050565b600080600060608486031215611a3857600080fd5b611a4184611724565b95602085013595506040909401359392505050565b600181811c90821680611a6a57607f821691505b60208210811415611a8b57634e487b7160e01b600052602260045260246000fd5b50919050565b634e487b7160e01b600052602160045260246000fd5b634e487b7160e01b600052601160045260246000fd5b60008219821115611ad057611ad0611aa7565b500190565b6020808252600c908201526b159bdd1a5b99c8195b99195960a21b604082015260600190565b6020808252818101527f4f776e61626c653a2063616c6c6572206973206e6f7420746865206f776e6572604082015260600190565b6001600160a01b0394851681529290931660208301526040820152606081019190915260a060808201819052600190820152600360fc1b60c082015260e00190565b600082821015611b8457611b84611aa7565b500390565b634e487b7160e01b600052603260045260246000fd5b6000600019821415611bb357611bb3611aa7565b5060010190565b600060208284031215611bcc57600080fd5b5051919050565b6000816000190483118215151615611bed57611bed611aa7565b500290565b600082611c0f57634e487b7160e01b600052601260045260246000fd5b50049056fea26469706673582212204e3d524ee9126189a09226804e3898f4205cab158ecc3582a1711099ec1addd164736f6c634300080a0033a2646970667358221220ad82f44d12d5424c97994b0154235c39858dc10c2b9a3727b4bd9d4342825c6d64736f6c634300080a0033",
  "linkReferences": {},
  "deployedLinkReferences": {}
}